{
  "contractName": "dAudit",
  "abi": [
    {
      "inputs": [],
      "payable": false,
      "stateMutability": "nonpayable",
      "type": "constructor"
    },
    {
      "constant": false,
      "inputs": [
        {
          "internalType": "string",
          "name": "rec1",
          "type": "string"
        },
        {
          "internalType": "string",
          "name": "rec2",
          "type": "string"
        },
        {
          "internalType": "int256",
          "name": "amt",
          "type": "int256"
        }
      ],
      "name": "unitocol",
      "outputs": [],
      "payable": false,
      "stateMutability": "nonpayable",
      "type": "function"
    },
    {
      "constant": false,
      "inputs": [
        {
          "internalType": "string",
          "name": "rec1",
          "type": "string"
        },
        {
          "internalType": "string",
          "name": "rec2",
          "type": "string"
        },
        {
          "internalType": "int256",
          "name": "amt",
          "type": "int256"
        }
      ],
      "name": "coltoacd",
      "outputs": [],
      "payable": false,
      "stateMutability": "nonpayable",
      "type": "function"
    },
    {
      "constant": false,
      "inputs": [
        {
          "internalType": "string",
          "name": "rec1",
          "type": "string"
        },
        {
          "internalType": "string",
          "name": "rec2",
          "type": "string"
        },
        {
          "internalType": "int256",
          "name": "amt",
          "type": "int256"
        }
      ],
      "name": "coltospt",
      "outputs": [],
      "payable": false,
      "stateMutability": "nonpayable",
      "type": "function"
    },
    {
      "constant": false,
      "inputs": [
        {
          "internalType": "string",
          "name": "rec1",
          "type": "string"
        },
        {
          "internalType": "string",
          "name": "rec2",
          "type": "string"
        },
        {
          "internalType": "int256",
          "name": "amt",
          "type": "int256"
        }
      ],
      "name": "coltomnt",
      "outputs": [],
      "payable": false,
      "stateMutability": "nonpayable",
      "type": "function"
    },
    {
      "constant": false,
      "inputs": [
        {
          "internalType": "string",
          "name": "rec1",
          "type": "string"
        },
        {
          "internalType": "string",
          "name": "rec2",
          "type": "string"
        },
        {
          "internalType": "int256",
          "name": "amt",
          "type": "int256"
        }
      ],
      "name": "coltocul",
      "outputs": [],
      "payable": false,
      "stateMutability": "nonpayable",
      "type": "function"
    },
    {
      "constant": true,
      "inputs": [
        {
          "internalType": "string",
          "name": "add",
          "type": "string"
        }
      ],
      "name": "getBalance",
      "outputs": [
        {
          "internalType": "int256",
          "name": "",
          "type": "int256"
        }
      ],
      "payable": false,
      "stateMutability": "view",
      "type": "function"
    },
    {
      "constant": true,
      "inputs": [
        {
          "internalType": "string",
          "name": "acc",
          "type": "string"
        },
        {
          "internalType": "uint256",
          "name": "index",
          "type": "uint256"
        }
      ],
      "name": "getReciept",
      "outputs": [
        {
          "internalType": "string",
          "name": "",
          "type": "string"
        }
      ],
      "payable": false,
      "stateMutability": "view",
      "type": "function"
    },
    {
      "constant": true,
      "inputs": [
        {
          "internalType": "string",
          "name": "acc",
          "type": "string"
        }
      ],
      "name": "getCount",
      "outputs": [
        {
          "internalType": "uint256",
          "name": "",
          "type": "uint256"
        }
      ],
      "payable": false,
      "stateMutability": "view",
      "type": "function"
    },
    {
      "constant": true,
      "inputs": [
        {
          "internalType": "address",
          "name": "user",
          "type": "address"
        }
      ],
      "name": "checkUser",
      "outputs": [
        {
          "internalType": "string",
          "name": "",
          "type": "string"
        }
      ],
      "payable": false,
      "stateMutability": "view",
      "type": "function"
    },
    {
      "constant": false,
      "inputs": [
        {
          "internalType": "string",
          "name": "rec",
          "type": "string"
        },
        {
          "internalType": "string",
          "name": "add",
          "type": "string"
        },
        {
          "internalType": "int256",
          "name": "amt",
          "type": "int256"
        }
      ],
      "name": "updateBalance",
      "outputs": [],
      "payable": false,
      "stateMutability": "nonpayable",
      "type": "function"
    }
  ],
  "bytecode": "0x60806040523480156200001157600080fd5b50732ee4bef611eedfe1822169bdcb18247cc27bbbce6000800160006101000a81548173ffffffffffffffffffffffffffffffffffffffff021916908373ffffffffffffffffffffffffffffffffffffffff160217905550600080600101819055506000601260405180807f756e697665727369747900000000000000000000000000000000000000000000815250600a01905090815260200160405180910390206000820160009054906101000a900473ffffffffffffffffffffffffffffffffffffffff168160000160006101000a81548173ffffffffffffffffffffffffffffffffffffffff021916908373ffffffffffffffffffffffffffffffffffffffff1602179055506001820154816001015560028201816002019080546200013c92919062000736565b5090505073c10fdea8aea67fee221fe47b4f0a1703cbb5d491600360000160006101000a81548173ffffffffffffffffffffffffffffffffffffffff021916908373ffffffffffffffffffffffffffffffffffffffff16021790555060006003600101819055506003601260405180807f636f6c6c65676500000000000000000000000000000000000000000000000000815250600701905090815260200160405180910390206000820160009054906101000a900473ffffffffffffffffffffffffffffffffffffffff168160000160006101000a81548173ffffffffffffffffffffffffffffffffffffffff021916908373ffffffffffffffffffffffffffffffffffffffff1602179055506001820154816001015560028201816002019080546200026c92919062000736565b5090505073443d7a509a5859be26fd5e2e60fec30d7e6f3adf600660000160006101000a81548173ffffffffffffffffffffffffffffffffffffffff021916908373ffffffffffffffffffffffffffffffffffffffff16021790555060006006600101819055506006601260405180807f63756c747572616c000000000000000000000000000000000000000000000000815250600801905090815260200160405180910390206000820160009054906101000a900473ffffffffffffffffffffffffffffffffffffffff168160000160006101000a81548173ffffffffffffffffffffffffffffffffffffffff021916908373ffffffffffffffffffffffffffffffffffffffff1602179055506001820154816001015560028201816002019080546200039c92919062000736565b509050507322f5b24222210b8ef09c21e563ea861253211979600960000160006101000a81548173ffffffffffffffffffffffffffffffffffffffff021916908373ffffffffffffffffffffffffffffffffffffffff16021790555060006009600101819055506009601260405180807f61636164656d6963730000000000000000000000000000000000000000000000815250600901905090815260200160405180910390206000820160009054906101000a900473ffffffffffffffffffffffffffffffffffffffff168160000160006101000a81548173ffffffffffffffffffffffffffffffffffffffff021916908373ffffffffffffffffffffffffffffffffffffffff160217905550600182015481600101556002820181600201908054620004cc92919062000736565b5090505073125f479933386d714d747274081365275cf9e691600c60000160006101000a81548173ffffffffffffffffffffffffffffffffffffffff021916908373ffffffffffffffffffffffffffffffffffffffff1602179055506000600c60010181905550600c601260405180807f73706f7274730000000000000000000000000000000000000000000000000000815250600601905090815260200160405180910390206000820160009054906101000a900473ffffffffffffffffffffffffffffffffffffffff168160000160006101000a81548173ffffffffffffffffffffffffffffffffffffffff021916908373ffffffffffffffffffffffffffffffffffffffff160217905550600182015481600101556002820181600201908054620005fc92919062000736565b5090505073c7891fd521378917c5e373bd16c96c2050bac25a600f60000160006101000a81548173ffffffffffffffffffffffffffffffffffffffff021916908373ffffffffffffffffffffffffffffffffffffffff1602179055506000600f60010181905550600f601260405180807f6d61696e74656e616e6365000000000000000000000000000000000000000000815250600b01905090815260200160405180910390206000820160009054906101000a900473ffffffffffffffffffffffffffffffffffffffff168160000160006101000a81548173ffffffffffffffffffffffffffffffffffffffff021916908373ffffffffffffffffffffffffffffffffffffffff1602179055506001820154816001015560028201816002019080546200072c92919062000736565b50905050620008e0565b8280548282559060005260206000209081019282156200079a5760005260206000209182015b8281111562000799578282908054600181600116156101000203166002900462000788929190620007ad565b50916001019190600101906200075c565b5b509050620007a991906200083b565b5090565b828054600181600116156101000203166002900490600052602060002090601f016020900481019282601f10620007e8578054855562000828565b828001600101855582156200082857600052602060002091601f016020900482015b82811115620008275782548255916001019190600101906200080a565b5b5090506200083791906200086c565b5090565b6200086991905b808211156200086557600081816200085b919062000894565b5060010162000842565b5090565b90565b6200089191905b808211156200088d57600081600090555060010162000873565b5090565b90565b50805460018160011615610100020316600290046000825580601f10620008bc5750620008dd565b601f016020900490600052602060002090810190620008dc91906200086c565b5b50565b611dc580620008f06000396000f3fe608060405234801561001057600080fd5b506004361061009e5760003560e01c80636532eff1116100665780636532eff1146106435780638b824ff51461079f578063a48c340e146108dd578063f001a55114610a39578063f5f54f0c14610b085761009e565b80631e9d48cf146100a357806328632008146101605780633a061233146102bc5780633a51d24614610418578063553427ec146104e7575b600080fd5b6100e5600480360360208110156100b957600080fd5b81019080803573ffffffffffffffffffffffffffffffffffffffff169060200190929190505050610c64565b6040518080602001828103825283818151815260200191508051906020019080838360005b8381101561012557808201518184015260208101905061010a565b50505050905090810190601f1680156101525780820380516001836020036101000a031916815260200191505b509250505060405180910390f35b6102ba6004803603606081101561017657600080fd5b810190808035906020019064010000000081111561019357600080fd5b8201836020820111156101a557600080fd5b803590602001918460018302840111640100000000831117156101c757600080fd5b91908080601f016020809104026020016040519081016040528093929190818152602001838380828437600081840152601f19601f8201169050808301925050505050505091929192908035906020019064010000000081111561022a57600080fd5b82018360208201111561023c57600080fd5b8035906020019184600183028401116401000000008311171561025e57600080fd5b91908080601f016020809104026020016040519081016040528093929190818152602001838380828437600081840152601f19601f82011690508083019250505050505050919291929080359060200190929190505050611031565b005b610416600480360360608110156102d257600080fd5b81019080803590602001906401000000008111156102ef57600080fd5b82018360208201111561030157600080fd5b8035906020019184600183028401116401000000008311171561032357600080fd5b91908080601f016020809104026020016040519081016040528093929190818152602001838380828437600081840152601f19601f8201169050808301925050505050505091929192908035906020019064010000000081111561038657600080fd5b82018360208201111561039857600080fd5b803590602001918460018302840111640100000000831117156103ba57600080fd5b91908080601f016020809104026020016040519081016040528093929190818152602001838380828437600081840152601f19601f820116905080830192505050505050509192919290803590602001909291905050506110f7565b005b6104d16004803603602081101561042e57600080fd5b810190808035906020019064010000000081111561044b57600080fd5b82018360208201111561045d57600080fd5b8035906020019184600183028401116401000000008311171561047f57600080fd5b91908080601f016020809104026020016040519081016040528093929190818152602001838380828437600081840152601f19601f8201169050808301925050505050505091929192905050506112ee565b6040518082815260200191505060405180910390f35b610641600480360360608110156104fd57600080fd5b810190808035906020019064010000000081111561051a57600080fd5b82018360208201111561052c57600080fd5b8035906020019184600183028401116401000000008311171561054e57600080fd5b91908080601f016020809104026020016040519081016040528093929190818152602001838380828437600081840152601f19601f820116905080830192505050505050509192919290803590602001906401000000008111156105b157600080fd5b8201836020820111156105c357600080fd5b803590602001918460018302840111640100000000831117156105e557600080fd5b91908080601f016020809104026020016040519081016040528093929190818152602001838380828437600081840152601f19601f82011690508083019250505050505050919291929080359060200190929190505050611369565b005b61079d6004803603606081101561065957600080fd5b810190808035906020019064010000000081111561067657600080fd5b82018360208201111561068857600080fd5b803590602001918460018302840111640100000000831117156106aa57600080fd5b91908080601f016020809104026020016040519081016040528093929190818152602001838380828437600081840152601f19601f8201169050808301925050505050505091929192908035906020019064010000000081111561070d57600080fd5b82018360208201111561071f57600080fd5b8035906020019184600183028401116401000000008311171561074157600080fd5b91908080601f016020809104026020016040519081016040528093929190818152602001838380828437600081840152601f19601f82011690508083019250505050505050919291929080359060200190929190505050611560565b005b610862600480360360408110156107b557600080fd5b81019080803590602001906401000000008111156107d257600080fd5b8201836020820111156107e457600080fd5b8035906020019184600183028401116401000000008311171561080657600080fd5b91908080601f016020809104026020016040519081016040528093929190818152602001838380828437600081840152601f19601f82011690508083019250505050505050919291929080359060200190929190505050611757565b6040518080602001828103825283818151815260200191508051906020019080838360005b838110156108a2578082015181840152602081019050610887565b50505050905090810190601f1680156108cf5780820380516001836020036101000a031916815260200191505b509250505060405180910390f35b610a37600480360360608110156108f357600080fd5b810190808035906020019064010000000081111561091057600080fd5b82018360208201111561092257600080fd5b8035906020019184600183028401116401000000008311171561094457600080fd5b91908080601f016020809104026020016040519081016040528093929190818152602001838380828437600081840152601f19601f820116905080830192505050505050509192919290803590602001906401000000008111156109a757600080fd5b8201836020820111156109b957600080fd5b803590602001918460018302840111640100000000831117156109db57600080fd5b91908080601f016020809104026020016040519081016040528093929190818152602001838380828437600081840152601f19601f82011690508083019250505050505050919291929080359060200190929190505050611880565b005b610af260048036036020811015610a4f57600080fd5b8101908080359060200190640100000000811115610a6c57600080fd5b820183602082011115610a7e57600080fd5b80359060200191846001830284011164010000000083111715610aa057600080fd5b91908080601f016020809104026020016040519081016040528093929190818152602001838380828437600081840152601f19601f820116905080830192505050505050509192919290505050611a77565b6040518082815260200191505060405180910390f35b610c6260048036036060811015610b1e57600080fd5b8101908080359060200190640100000000811115610b3b57600080fd5b820183602082011115610b4d57600080fd5b80359060200191846001830284011164010000000083111715610b6f57600080fd5b91908080601f016020809104026020016040519081016040528093929190818152602001838380828437600081840152601f19601f82011690508083019250505050505050919291929080359060200190640100000000811115610bd257600080fd5b820183602082011115610be457600080fd5b80359060200191846001830284011164010000000083111715610c0657600080fd5b91908080601f016020809104026020016040519081016040528093929190818152602001838380828437600081840152601f19601f82011690508083019250505050505050919291929080359060200190929190505050611af5565b005b6060806000800160009054906101000a900473ffffffffffffffffffffffffffffffffffffffff1673ffffffffffffffffffffffffffffffffffffffff168373ffffffffffffffffffffffffffffffffffffffff161415610cfc576040518060400160405280600a81526020017f756e6976657273697479000000000000000000000000000000000000000000008152509050611028565b600360000160009054906101000a900473ffffffffffffffffffffffffffffffffffffffff1673ffffffffffffffffffffffffffffffffffffffff168373ffffffffffffffffffffffffffffffffffffffff161415610d92576040518060400160405280600781526020017f636f6c6c656765000000000000000000000000000000000000000000000000008152509050611027565b600660000160009054906101000a900473ffffffffffffffffffffffffffffffffffffffff1673ffffffffffffffffffffffffffffffffffffffff168373ffffffffffffffffffffffffffffffffffffffff161415610e28576040518060400160405280600881526020017f63756c747572616c0000000000000000000000000000000000000000000000008152509050611026565b600960000160009054906101000a900473ffffffffffffffffffffffffffffffffffffffff1673ffffffffffffffffffffffffffffffffffffffff168373ffffffffffffffffffffffffffffffffffffffff161415610ebe576040518060400160405280600981526020017f61636164656d69637300000000000000000000000000000000000000000000008152509050611025565b600c60000160009054906101000a900473ffffffffffffffffffffffffffffffffffffffff1673ffffffffffffffffffffffffffffffffffffffff168373ffffffffffffffffffffffffffffffffffffffff161415610f54576040518060400160405280600681526020017f73706f72747300000000000000000000000000000000000000000000000000008152509050611024565b600f60000160009054906101000a900473ffffffffffffffffffffffffffffffffffffffff1673ffffffffffffffffffffffffffffffffffffffff168373ffffffffffffffffffffffffffffffffffffffff161415610fea576040518060400160405280600b81526020017f6d61696e74656e616e63650000000000000000000000000000000000000000008152509050611023565b6040518060400160405280600781526020017f73747564656e740000000000000000000000000000000000000000000000000081525090505b5b5b5b5b5b80915050919050565b60006012836040518082805190602001908083835b602083106110695780518252602082019150602081019050602083039250611046565b6001836020036101000a03801982511681845116808217855250505050505090500191505090815260200160405180910390209050818160010160008282540392505081905550806002018490806001815401808255809150509060018203906000526020600020016000909192909190915090805190602001906110ef929190611ceb565b505050505050565b600360000160009054906101000a900473ffffffffffffffffffffffffffffffffffffffff1673ffffffffffffffffffffffffffffffffffffffff163373ffffffffffffffffffffffffffffffffffffffff16146111bd576040517f08c379a00000000000000000000000000000000000000000000000000000000081526004018080602001828103825260158152602001807f53656e646572206e6f7420617574686f7269736564000000000000000000000081525060200191505060405180910390fd5b6000601260405180807f6d61696e74656e616e6365000000000000000000000000000000000000000000815250600b019050908152602001604051809103902090506000601260405180807f636f6c6c65676500000000000000000000000000000000000000000000000000815250600701905090815260200160405180910390209050828260010160008282540192505081905550828160010160008282540392505081905550806002018590806001815401808255809150509060018203906000526020600020016000909192909190915090805190602001906112a4929190611ceb565b5050816002018490806001815401808255809150509060018203906000526020600020016000909192909190915090805190602001906112e5929190611ceb565b50505050505050565b6000806012836040518082805190602001908083835b602083106113275780518252602082019150602081019050602083039250611304565b6001836020036101000a038019825116818451168082178552505050505050905001915050908152602001604051809103902090508060010154915050919050565b600360000160009054906101000a900473ffffffffffffffffffffffffffffffffffffffff1673ffffffffffffffffffffffffffffffffffffffff163373ffffffffffffffffffffffffffffffffffffffff161461142f576040517f08c379a00000000000000000000000000000000000000000000000000000000081526004018080602001828103825260158152602001807f53656e646572206e6f7420617574686f7269736564000000000000000000000081525060200191505060405180910390fd5b6000601260405180807f73706f72747300000000000000000000000000000000000000000000000000008152506006019050908152602001604051809103902090506000601260405180807f636f6c6c6567650000000000000000000000000000000000000000000000000081525060070190509081526020016040518091039020905082826001016000828254019250508190555082816001016000828254039250508190555080600201859080600181540180825580915050906001820390600052602060002001600090919290919091509080519060200190611516929190611ceb565b505081600201849080600181540180825580915050906001820390600052602060002001600090919290919091509080519060200190611557929190611ceb565b50505050505050565b600360000160009054906101000a900473ffffffffffffffffffffffffffffffffffffffff1673ffffffffffffffffffffffffffffffffffffffff163373ffffffffffffffffffffffffffffffffffffffff1614611626576040517f08c379a00000000000000000000000000000000000000000000000000000000081526004018080602001828103825260158152602001807f53656e646572206e6f7420617574686f7269736564000000000000000000000081525060200191505060405180910390fd5b6000601260405180807f63756c747572616c0000000000000000000000000000000000000000000000008152506008019050908152602001604051809103902090506000601260405180807f636f6c6c656765000000000000000000000000000000000000000000000000008152506007019050908152602001604051809103902090508282600101600082825401925050819055508281600101600082825403925050819055508060020185908060018154018082558091505090600182039060005260206000200160009091929091909150908051906020019061170d929190611ceb565b50508160020184908060018154018082558091505090600182039060005260206000200160009091929091909150908051906020019061174e929190611ceb565b50505050505050565b6060806012846040518082805190602001908083835b60208310611790578051825260208201915060208101905060208303925061176d565b6001836020036101000a038019825116818451168082178552505050505050905001915050908152602001604051809103902060020183815481106117d157fe5b906000526020600020018054600181600116156101000203166002900480601f01602080910402602001604051908101604052809291908181526020018280546001816001161561010002031660029004801561186f5780601f106118445761010080835404028352916020019161186f565b820191906000526020600020905b81548152906001019060200180831161185257829003601f168201915b505050505090508091505092915050565b600360000160009054906101000a900473ffffffffffffffffffffffffffffffffffffffff1673ffffffffffffffffffffffffffffffffffffffff163373ffffffffffffffffffffffffffffffffffffffff1614611946576040517f08c379a00000000000000000000000000000000000000000000000000000000081526004018080602001828103825260158152602001807f53656e646572206e6f7420617574686f7269736564000000000000000000000081525060200191505060405180910390fd5b6000601260405180807f61636164656d69637300000000000000000000000000000000000000000000008152506009019050908152602001604051809103902090506000601260405180807f636f6c6c6567650000000000000000000000000000000000000000000000000081525060070190509081526020016040518091039020905082826001016000828254019250508190555082816001016000828254039250508190555080600201859080600181540180825580915050906001820390600052602060002001600090919290919091509080519060200190611a2d929190611ceb565b505081600201849080600181540180825580915050906001820390600052602060002001600090919290919091509080519060200190611a6e929190611ceb565b50505050505050565b6000806012836040518082805190602001908083835b60208310611ab05780518252602082019150602081019050602083039250611a8d565b6001836020036101000a038019825116818451168082178552505050505050905001915050908152602001604051809103902060020180549050905080915050919050565b6000800160009054906101000a900473ffffffffffffffffffffffffffffffffffffffff1673ffffffffffffffffffffffffffffffffffffffff163373ffffffffffffffffffffffffffffffffffffffff1614611bba576040517f08c379a00000000000000000000000000000000000000000000000000000000081526004018080602001828103825260158152602001807f53656e646572206e6f7420617574686f7269736564000000000000000000000081525060200191505060405180910390fd5b6000601260405180807f756e697665727369747900000000000000000000000000000000000000000000815250600a019050908152602001604051809103902090506000601260405180807f636f6c6c6567650000000000000000000000000000000000000000000000000081525060070190509081526020016040518091039020905082826001016000828254019250508190555082816001016000828254019250508190555081600201859080600181540180825580915050906001820390600052602060002001600090919290919091509080519060200190611ca1929190611ceb565b505080600201849080600181540180825580915050906001820390600052602060002001600090919290919091509080519060200190611ce2929190611ceb565b50505050505050565b828054600181600116156101000203166002900490600052602060002090601f016020900481019282601f10611d2c57805160ff1916838001178555611d5a565b82800160010185558215611d5a579182015b82811115611d59578251825591602001919060010190611d3e565b5b509050611d679190611d6b565b5090565b611d8d91905b80821115611d89576000816000905550600101611d71565b5090565b9056fea265627a7a72315820bc146195ca3dd4f5e57eeb564f6d2d983524373bfcab7a22549ea3ffb470971564736f6c63430005100032",
  "source": "pragma solidity >=0.5.11;\n\ncontract dAudit\n{   \n    struct accountHolder\n    {\n        address add;\n        int bal;\n        string[] reciept ;\n    }\n\n    accountHolder universityHead;\n    accountHolder collegeHead;\n    accountHolder culturalHead;\n    accountHolder academicsHead;\n    accountHolder sportsHead;\n    accountHolder maintenanceHead;\n    mapping(string => accountHolder) getAccount;\n\n    constructor() public\n    {\n        universityHead.add = 0x2EE4BEf611eeDFe1822169Bdcb18247CC27BbbcE;\n        universityHead.bal = 0;\n        getAccount[\"university\"] = universityHead;\n\n        collegeHead.add = 0xc10FDEA8aEA67Fee221FE47b4f0A1703cbB5D491;\n        collegeHead.bal = 0;\n        getAccount[\"college\"] = collegeHead;\n        \n        culturalHead.add = 0x443D7a509A5859BE26fD5E2e60feC30d7E6f3AdF;\n        culturalHead.bal = 0;\n        getAccount[\"cultural\"] = culturalHead;\n        \n        academicsHead.add = 0x22f5B24222210B8ef09c21E563EA861253211979;\n        academicsHead.bal = 0;\n        getAccount[\"academics\"] = academicsHead;\n\n        sportsHead.add = 0x125F479933386d714d747274081365275CF9e691;\n        sportsHead.bal = 0;\n        getAccount[\"sports\"] = sportsHead;\n\n        maintenanceHead.add = 0xc7891Fd521378917C5E373bD16c96C2050BAC25a;\n        maintenanceHead.bal = 0;\n        getAccount[\"maintenance\"] = maintenanceHead;\n    }\n\n    function unitocol(string memory rec1, string memory rec2,int amt) public\n    {\n        require(msg.sender == universityHead.add,\"Sender not authorised\");\n        accountHolder storage uni = getAccount[\"university\"];\n        accountHolder storage col = getAccount[\"college\"];\n        uni.bal += amt;\n        col.bal += amt;\n        uni.reciept.push(rec1);\n        col.reciept.push(rec2);\n    }\n\n    function coltoacd(string memory rec1, string memory rec2,int amt) public\n    {\n        require(msg.sender == collegeHead.add,\"Sender not authorised\");\n        accountHolder storage acd = getAccount[\"academics\"];\n        accountHolder storage col = getAccount[\"college\"];\n        acd.bal += amt;\n        col.bal -= amt;\n        col.reciept.push(rec1);\n        acd.reciept.push(rec2);\n        \n    }\n\n    function coltospt(string memory rec1, string memory rec2,int amt) public\n    {\n        require(msg.sender == collegeHead.add,\"Sender not authorised\");\n        accountHolder storage spt = getAccount[\"sports\"];\n        accountHolder storage col = getAccount[\"college\"];\n        spt.bal += amt;\n        col.bal -= amt;\n        col.reciept.push(rec1);\n        spt.reciept.push(rec2);\n        \n    }\n    function coltomnt(string memory rec1, string memory rec2,int amt) public\n    {\n        require(msg.sender == collegeHead.add,\"Sender not authorised\");\n        accountHolder storage mnt = getAccount[\"maintenance\"];\n        accountHolder storage col = getAccount[\"college\"];\n        mnt.bal += amt;\n        col.bal -= amt;\n        col.reciept.push(rec1);\n        mnt.reciept.push(rec2);\n        \n    }\n    function coltocul(string memory rec1, string memory rec2,int amt) public\n    {\n        require(msg.sender == collegeHead.add,\"Sender not authorised\");\n        accountHolder storage cul = getAccount[\"cultural\"];\n        accountHolder storage col = getAccount[\"college\"];\n        cul.bal += amt;\n        col.bal -= amt;\n        col.reciept.push(rec1);\n        cul.reciept.push(rec2);\n        \n    }\n\n    function getBalance (string memory add) public view returns(int)\n    {\n        accountHolder storage acc = getAccount[add];\n        return acc.bal;\n    }\n\n    function getReciept (string memory acc,uint index) public view returns(string memory)\n    {\n        string memory rec = getAccount[acc].reciept[index];\n        return rec;\n    }\n\n    function getCount (string memory acc) public view returns(uint)\n    {\n        uint len = (getAccount[acc].reciept).length;\n        return len;\n    }\n    \n    function checkUser (address user) public view returns(string memory)\n    {\n        string memory res;\n\n        if(user==universityHead.add)\n            res = \"university\";\n        else if(user==collegeHead.add)\n            res = \"college\";\n        else if(user==culturalHead.add)\n            res = \"cultural\";\n        else if(user==academicsHead.add)\n            res = \"academics\";\n        else if(user==sportsHead.add)\n            res = \"sports\";\n        else if(user==maintenanceHead.add)\n            res = \"maintenance\";\n        else\n            res = \"student\";\n\n        return res;\n    }\n\n    function updateBalance(string memory rec,string memory add,int amt) public\n    {\n        accountHolder storage acc = getAccount[add];\n        acc.bal -= amt;\n        acc.reciept.push(rec);\n    }\n}",
  "sourcePath": "/home/manish/Desktop/dAudit/contracts/dAudit.sol",
  "compiler": {
    "name": "solc",
    "version": "0.5.16+commit.9c3226ce.Emscripten.clang"
  },
  "schemaVersion": "3.0.23",
  "updatedAt": "2020-02-22T21:12:30.746Z",
  "networkType": "ethereum",
  "devdoc": {
    "methods": {}
  },
  "userdoc": {
    "methods": {}
  }
}